{
  "_format": "hh-sol-artifact-1",
  "contractName": "Marketplace",
  "sourceName": "contracts/Marketplace.sol",
  "abi": [
    {
      "anonymous": false,
      "inputs": [
        {
          "indexed": false,
          "internalType": "address",
          "name": "previousAdmin",
          "type": "address"
        },
        {
          "indexed": false,
          "internalType": "address",
          "name": "newAdmin",
          "type": "address"
        }
      ],
      "name": "AdminChanged",
      "type": "event"
    },
    {
      "anonymous": false,
      "inputs": [
        {
          "indexed": true,
          "internalType": "address",
          "name": "beacon",
          "type": "address"
        }
      ],
      "name": "BeaconUpgraded",
      "type": "event"
    },
    {
      "anonymous": false,
      "inputs": [
        {
          "indexed": true,
          "internalType": "uint256",
          "name": "itemId",
          "type": "uint256"
        }
      ],
      "name": "MarketItemCancelled",
      "type": "event"
    },
    {
      "anonymous": false,
      "inputs": [
        {
          "indexed": true,
          "internalType": "uint256",
          "name": "itemId",
          "type": "uint256"
        },
        {
          "indexed": true,
          "internalType": "address",
          "name": "nftContract",
          "type": "address"
        },
        {
          "indexed": true,
          "internalType": "uint256",
          "name": "tokenId",
          "type": "uint256"
        },
        {
          "indexed": false,
          "internalType": "address",
          "name": "seller",
          "type": "address"
        },
        {
          "indexed": false,
          "internalType": "uint256",
          "name": "price",
          "type": "uint256"
        },
        {
          "indexed": false,
          "internalType": "string",
          "name": "currency",
          "type": "string"
        },
        {
          "indexed": false,
          "internalType": "uint256",
          "name": "discountPercentage",
          "type": "uint256"
        },
        {
          "indexed": false,
          "internalType": "uint256",
          "name": "idToAddressList",
          "type": "uint256"
        },
        {
          "indexed": false,
          "internalType": "uint256",
          "name": "listingPrice",
          "type": "uint256"
        }
      ],
      "name": "MarketItemCreated",
      "type": "event"
    },
    {
      "anonymous": false,
      "inputs": [
        {
          "indexed": true,
          "internalType": "uint256",
          "name": "itemId",
          "type": "uint256"
        }
      ],
      "name": "MarketItemSold",
      "type": "event"
    },
    {
      "anonymous": false,
      "inputs": [
        {
          "indexed": true,
          "internalType": "address",
          "name": "previousOwner",
          "type": "address"
        },
        {
          "indexed": true,
          "internalType": "address",
          "name": "newOwner",
          "type": "address"
        }
      ],
      "name": "OwnershipTransferred",
      "type": "event"
    },
    {
      "anonymous": false,
      "inputs": [
        {
          "indexed": true,
          "internalType": "address",
          "name": "implementation",
          "type": "address"
        }
      ],
      "name": "Upgraded",
      "type": "event"
    },
    {
      "inputs": [
        {
          "internalType": "address",
          "name": "_contractAddress",
          "type": "address"
        },
        {
          "internalType": "address",
          "name": "_owner",
          "type": "address"
        }
      ],
      "name": "addNftFirstOwner",
      "outputs": [],
      "stateMutability": "nonpayable",
      "type": "function"
    },
    {
      "inputs": [
        {
          "internalType": "uint256",
          "name": "id",
          "type": "uint256"
        },
        {
          "internalType": "address[]",
          "name": "_addresses",
          "type": "address[]"
        },
        {
          "internalType": "uint256",
          "name": "discountPercentage",
          "type": "uint256"
        }
      ],
      "name": "addressList",
      "outputs": [],
      "stateMutability": "nonpayable",
      "type": "function"
    },
    {
      "inputs": [
        {
          "internalType": "uint256",
          "name": "itemId",
          "type": "uint256"
        }
      ],
      "name": "cancelMarketItem",
      "outputs": [],
      "stateMutability": "nonpayable",
      "type": "function"
    },
    {
      "inputs": [
        {
          "internalType": "string",
          "name": "a",
          "type": "string"
        },
        {
          "internalType": "string",
          "name": "b",
          "type": "string"
        }
      ],
      "name": "compareStrings",
      "outputs": [
        {
          "internalType": "bool",
          "name": "",
          "type": "bool"
        }
      ],
      "stateMutability": "view",
      "type": "function"
    },
    {
      "inputs": [
        {
          "internalType": "address",
          "name": "nftContractAddress",
          "type": "address"
        },
        {
          "internalType": "uint256",
          "name": "tokenId",
          "type": "uint256"
        },
        {
          "internalType": "uint256",
          "name": "price",
          "type": "uint256"
        },
        {
          "internalType": "string",
          "name": "currency",
          "type": "string"
        },
        {
          "internalType": "uint256",
          "name": "discountPercentage",
          "type": "uint256"
        },
        {
          "internalType": "uint256",
          "name": "_idToAddressList",
          "type": "uint256"
        }
      ],
      "name": "createMarketItem",
      "outputs": [],
      "stateMutability": "payable",
      "type": "function"
    },
    {
      "inputs": [
        {
          "internalType": "uint256",
          "name": "itemId",
          "type": "uint256"
        },
        {
          "internalType": "string",
          "name": "currency",
          "type": "string"
        }
      ],
      "name": "createMarketSale",
      "outputs": [
        {
          "internalType": "uint256",
          "name": "",
          "type": "uint256"
        }
      ],
      "stateMutability": "payable",
      "type": "function"
    },
    {
      "inputs": [
        {
          "internalType": "address",
          "name": "nftContractAddress",
          "type": "address"
        },
        {
          "internalType": "uint256",
          "name": "tokenId",
          "type": "uint256"
        }
      ],
      "name": "fetchMarketItem",
      "outputs": [
        {
          "components": [
            {
              "internalType": "uint256",
              "name": "itemId",
              "type": "uint256"
            },
            {
              "internalType": "address",
              "name": "nftContract",
              "type": "address"
            },
            {
              "internalType": "uint256",
              "name": "tokenId",
              "type": "uint256"
            },
            {
              "internalType": "address payable",
              "name": "seller",
              "type": "address"
            },
            {
              "internalType": "address payable",
              "name": "owner",
              "type": "address"
            },
            {
              "internalType": "uint256",
              "name": "price",
              "type": "uint256"
            },
            {
              "internalType": "string",
              "name": "currency",
              "type": "string"
            },
            {
              "internalType": "uint256",
              "name": "discountPercentage",
              "type": "uint256"
            },
            {
              "internalType": "uint256",
              "name": "idToAddressList",
              "type": "uint256"
            },
            {
              "internalType": "uint256",
              "name": "listingPrice",
              "type": "uint256"
            },
            {
              "internalType": "bool",
              "name": "cancelled",
              "type": "bool"
            }
          ],
          "internalType": "struct Marketplace.MarketItem",
          "name": "",
          "type": "tuple"
        }
      ],
      "stateMutability": "view",
      "type": "function"
    },
    {
      "inputs": [],
      "name": "fetchMarketItems",
      "outputs": [
        {
          "components": [
            {
              "internalType": "uint256",
              "name": "itemId",
              "type": "uint256"
            },
            {
              "internalType": "address",
              "name": "nftContract",
              "type": "address"
            },
            {
              "internalType": "uint256",
              "name": "tokenId",
              "type": "uint256"
            },
            {
              "internalType": "address payable",
              "name": "seller",
              "type": "address"
            },
            {
              "internalType": "address payable",
              "name": "owner",
              "type": "address"
            },
            {
              "internalType": "uint256",
              "name": "price",
              "type": "uint256"
            },
            {
              "internalType": "string",
              "name": "currency",
              "type": "string"
            },
            {
              "internalType": "uint256",
              "name": "discountPercentage",
              "type": "uint256"
            },
            {
              "internalType": "uint256",
              "name": "idToAddressList",
              "type": "uint256"
            },
            {
              "internalType": "uint256",
              "name": "listingPrice",
              "type": "uint256"
            },
            {
              "internalType": "bool",
              "name": "cancelled",
              "type": "bool"
            }
          ],
          "internalType": "struct Marketplace.MarketItem[]",
          "name": "",
          "type": "tuple[]"
        }
      ],
      "stateMutability": "view",
      "type": "function"
    },
    {
      "inputs": [],
      "name": "fetchMyNFTs",
      "outputs": [
        {
          "components": [
            {
              "internalType": "uint256",
              "name": "itemId",
              "type": "uint256"
            },
            {
              "internalType": "address",
              "name": "nftContract",
              "type": "address"
            },
            {
              "internalType": "uint256",
              "name": "tokenId",
              "type": "uint256"
            },
            {
              "internalType": "address payable",
              "name": "seller",
              "type": "address"
            },
            {
              "internalType": "address payable",
              "name": "owner",
              "type": "address"
            },
            {
              "internalType": "uint256",
              "name": "price",
              "type": "uint256"
            },
            {
              "internalType": "string",
              "name": "currency",
              "type": "string"
            },
            {
              "internalType": "uint256",
              "name": "discountPercentage",
              "type": "uint256"
            },
            {
              "internalType": "uint256",
              "name": "idToAddressList",
              "type": "uint256"
            },
            {
              "internalType": "uint256",
              "name": "listingPrice",
              "type": "uint256"
            },
            {
              "internalType": "bool",
              "name": "cancelled",
              "type": "bool"
            }
          ],
          "internalType": "struct Marketplace.MarketItem[]",
          "name": "",
          "type": "tuple[]"
        }
      ],
      "stateMutability": "view",
      "type": "function"
    },
    {
      "inputs": [
        {
          "internalType": "uint256",
          "name": "id",
          "type": "uint256"
        },
        {
          "internalType": "address",
          "name": "_user",
          "type": "address"
        }
      ],
      "name": "getAddressListDiscountPercentage",
      "outputs": [
        {
          "internalType": "uint256",
          "name": "",
          "type": "uint256"
        }
      ],
      "stateMutability": "view",
      "type": "function"
    },
    {
      "inputs": [
        {
          "internalType": "uint256",
          "name": "id",
          "type": "uint256"
        }
      ],
      "name": "getIdToAddressListIsOnlyAllowed",
      "outputs": [
        {
          "internalType": "bool",
          "name": "",
          "type": "bool"
        }
      ],
      "stateMutability": "view",
      "type": "function"
    },
    {
      "inputs": [
        {
          "internalType": "uint256",
          "name": "id",
          "type": "uint256"
        },
        {
          "internalType": "address",
          "name": "_user",
          "type": "address"
        }
      ],
      "name": "getIsInAddressList",
      "outputs": [
        {
          "internalType": "bool",
          "name": "",
          "type": "bool"
        }
      ],
      "stateMutability": "view",
      "type": "function"
    },
    {
      "inputs": [],
      "name": "getListingPrice",
      "outputs": [
        {
          "internalType": "uint256",
          "name": "",
          "type": "uint256"
        }
      ],
      "stateMutability": "view",
      "type": "function"
    },
    {
      "inputs": [
        {
          "internalType": "uint256",
          "name": "itemId",
          "type": "uint256"
        }
      ],
      "name": "getMarketItem",
      "outputs": [
        {
          "components": [
            {
              "internalType": "uint256",
              "name": "itemId",
              "type": "uint256"
            },
            {
              "internalType": "address",
              "name": "nftContract",
              "type": "address"
            },
            {
              "internalType": "uint256",
              "name": "tokenId",
              "type": "uint256"
            },
            {
              "internalType": "address payable",
              "name": "seller",
              "type": "address"
            },
            {
              "internalType": "address payable",
              "name": "owner",
              "type": "address"
            },
            {
              "internalType": "uint256",
              "name": "price",
              "type": "uint256"
            },
            {
              "internalType": "string",
              "name": "currency",
              "type": "string"
            },
            {
              "internalType": "uint256",
              "name": "discountPercentage",
              "type": "uint256"
            },
            {
              "internalType": "uint256",
              "name": "idToAddressList",
              "type": "uint256"
            },
            {
              "internalType": "uint256",
              "name": "listingPrice",
              "type": "uint256"
            },
            {
              "internalType": "bool",
              "name": "cancelled",
              "type": "bool"
            }
          ],
          "internalType": "struct Marketplace.MarketItem",
          "name": "",
          "type": "tuple"
        }
      ],
      "stateMutability": "view",
      "type": "function"
    },
    {
      "inputs": [
        {
          "internalType": "address",
          "name": "_contractAddress",
          "type": "address"
        }
      ],
      "name": "getNftFirstOwner",
      "outputs": [
        {
          "internalType": "address",
          "name": "",
          "type": "address"
        }
      ],
      "stateMutability": "view",
      "type": "function"
    },
    {
      "inputs": [],
      "name": "getOwnlyAddress",
      "outputs": [
        {
          "internalType": "address",
          "name": "",
          "type": "address"
        }
      ],
      "stateMutability": "view",
      "type": "function"
    },
    {
      "inputs": [],
      "name": "initialize",
      "outputs": [],
      "stateMutability": "nonpayable",
      "type": "function"
    },
    {
      "inputs": [],
      "name": "owner",
      "outputs": [
        {
          "internalType": "address",
          "name": "",
          "type": "address"
        }
      ],
      "stateMutability": "view",
      "type": "function"
    },
    {
      "inputs": [],
      "name": "renounceOwnership",
      "outputs": [],
      "stateMutability": "nonpayable",
      "type": "function"
    },
    {
      "inputs": [
        {
          "internalType": "uint256",
          "name": "id",
          "type": "uint256"
        },
        {
          "internalType": "bool",
          "name": "state",
          "type": "bool"
        }
      ],
      "name": "setIdToAddressListIsOnlyAllowed",
      "outputs": [],
      "stateMutability": "nonpayable",
      "type": "function"
    },
    {
      "inputs": [
        {
          "internalType": "uint256",
          "name": "_listingPrice",
          "type": "uint256"
        }
      ],
      "name": "setListingPrice",
      "outputs": [],
      "stateMutability": "nonpayable",
      "type": "function"
    },
    {
      "inputs": [
        {
          "internalType": "address",
          "name": "_ownlyAddress",
          "type": "address"
        }
      ],
      "name": "setOwnlyAddress",
      "outputs": [],
      "stateMutability": "nonpayable",
      "type": "function"
    },
    {
      "inputs": [
        {
          "internalType": "address",
          "name": "newOwner",
          "type": "address"
        }
      ],
      "name": "transferOwnership",
      "outputs": [],
      "stateMutability": "nonpayable",
      "type": "function"
    },
    {
      "inputs": [
        {
          "internalType": "address",
          "name": "newImplementation",
          "type": "address"
        }
      ],
      "name": "upgradeTo",
      "outputs": [],
      "stateMutability": "nonpayable",
      "type": "function"
    },
    {
      "inputs": [
        {
          "internalType": "address",
          "name": "newImplementation",
          "type": "address"
        },
        {
          "internalType": "bytes",
          "name": "data",
          "type": "bytes"
        }
      ],
      "name": "upgradeToAndCall",
      "outputs": [],
      "stateMutability": "payable",
      "type": "function"
    },
    {
      "inputs": [],
      "name": "version",
      "outputs": [
        {
          "internalType": "string",
          "name": "",
          "type": "string"
        }
      ],
      "stateMutability": "pure",
      "type": "function"
    }
  ],
  "bytecode": "0x60a06040523060601b60805234801561001757600080fd5b5060805160601c61384861004b60003960008181611443015281816114830152818161163c015261167c01526138486000f3fe6080604052600436106101815760003560e01c80637c726b69116100d1578063a6e22b021161008a578063c7be7a4911610064578063c7be7a4914610479578063d463568914610499578063d7c3f8f2146104b9578063f2fde38b146104d757610181565b8063a6e22b0214610419578063bed34bba14610439578063c69977ba1461045957610181565b80637c726b69146103625780638129fc1c146103825780638da5cb5b1461039757806395ceafc1146103b5578063a3621108146103c8578063a47b2727146103e857610181565b8063392ea5161161013e57806354fd4d501161011857806354fd4d50146102aa5780636bf11c67146102db5780636c24891d146102fb578063715018a61461034d57610181565b8063392ea516146102475780633af2f02a146102775780634f1ef2861461029757610181565b80630897338d146101865780630f08efe01461019b57806312e85585146101c6578063202e3740146101e55780632e41f5fa146101fa5780633659cfe614610227575b600080fd5b61019961019436600461302a565b6104f7565b005b3480156101a757600080fd5b506101b0610a67565b6040516101bd919061337f565b60405180910390f35b3480156101d257600080fd5b5060ff545b6040519081526020016101bd565b3480156101f157600080fd5b506101b0610e78565b34801561020657600080fd5b5061021a610215366004612fff565b61112d565b6040516101bd9190613695565b34801561023357600080fd5b50610199610242366004612f2e565b611438565b34801561025357600080fd5b50610267610262366004613128565b611501565b60405190151581526020016101bd565b34801561028357600080fd5b506101d7610292366004613128565b611596565b6101996102a5366004612f9e565b611631565b3480156102b657600080fd5b506040805180820182526002815261763160f01b602082015290516101bd91906133df565b3480156102e757600080fd5b506101996102f6366004612f2e565b6116eb565b34801561030757600080fd5b50610335610316366004612f2e565b6001600160a01b03908116600090815261010060205260409020541690565b6040516001600160a01b0390911681526020016101bd565b34801561035957600080fd5b50610199611737565b34801561036e57600080fd5b5061019961037d366004613110565b61176d565b34801561038e57600080fd5b5061019961179c565b3480156103a357600080fd5b506033546001600160a01b0316610335565b6101d76103c33660046131ef565b611898565b3480156103d457600080fd5b506101996103e3366004612f66565b6120c9565b3480156103f457600080fd5b50610267610403366004613110565b6000908152610104602052604090205460ff1690565b34801561042557600080fd5b50610199610434366004613110565b612122565b34801561044557600080fd5b506102676104543660046130b9565b612564565b34801561046557600080fd5b506101996104743660046131cb565b6125bd565b34801561048557600080fd5b5061021a610494366004613110565b612608565b3480156104a557600080fd5b506101996104b436600461314c565b612741565b3480156104c557600080fd5b5060fe546001600160a01b0316610335565b3480156104e357600080fd5b506101996104f2366004612f2e565b6127b6565b600260c95414156105235760405162461bcd60e51b815260040161051a9061365e565b60405180910390fd5b600260c9556040516331a9108f60e11b81526004810186905286906000906001600160a01b03831690636352211e9060240160206040518083038186803b15801561056d57600080fd5b505afa158015610581573d6000803e3d6000fd5b505050506040513d601f19601f820116820180604052508101906105a59190612f4a565b60405163e985e9c560e01b81526001600160a01b03808316600483015230602483015291925060009184169063e985e9c59060440160206040518083038186803b1580156105f257600080fd5b505afa158015610606573d6000803e3d6000fd5b505050506040513d601f19601f8201168201806040525081019061062a919061309d565b9050610651866040518060400160405280600381526020016221272160e91b815250612564565b8061067c575061067c866040518060400160405280600381526020016227aba760e91b815250612564565b6106c25760405162461bcd60e51b815260206004820152601760248201527624b73b30b634b210383934b1b29031bab93932b731bc9760491b604482015260640161051a565b6001600160a01b03821633146106ea5760405162461bcd60e51b815260040161051a9061355a565b806107075760405162461bcd60e51b815260040161051a90613459565b600087116107575760405162461bcd60e51b815260206004820152601d60248201527f5072696365206d757374206265206174206c656173742031207765692e000000604482015260640161051a565b60ff5434146107b65760405162461bcd60e51b815260206004820152602560248201527f56616c7565206d75737420626520657175616c20746f206c697374696e6720706044820152643934b1b29760d91b606482015260840161051a565b606485106108065760405162461bcd60e51b815260206004820152601c60248201527f496e76616c696420646973636f756e742070657263656e746167652e00000000604482015260640161051a565b60006108128a8a61112d565b8051909150156108645760405162461bcd60e51b815260206004820152601b60248201527f4d61726b6574206974656d20616c7265616479206578697374732e0000000000604482015260640161051a565b61087260fb80546001019055565b600061087d60fb5490565b90506040518061016001604052808281526020018c6001600160a01b031681526020018b8152602001336001600160a01b0316815260200160006001600160a01b031681526020018a815260200189815260200188815260200187815260200160ff5481526020016000151581525061010160008381526020019081526020016000206000820151816000015560208201518160010160006101000a8154816001600160a01b0302191690836001600160a01b031602179055506040820151816002015560608201518160030160006101000a8154816001600160a01b0302191690836001600160a01b0316021790555060808201518160040160006101000a8154816001600160a01b0302191690836001600160a01b0316021790555060a0820151816005015560c08201518160060190805190602001906109c1929190612d18565b5060e082015181600701556101008201518160080155610120820151816009015561014082015181600a0160006101000a81548160ff021916908315150217905550905050898b6001600160a01b0316827fe4d6bc747f0551cde52a645986cc50bc92783cb2bc7d91264936a94a5a825076338d8d8d8d60ff54604051610a4d9695949392919061333a565b60405180910390a45050600160c955505050505050505050565b60606000610a7460fb5490565b90506000610a8160fc5490565b60fb54610a8e91906136ff565b90506000808267ffffffffffffffff811115610aba57634e487b7160e01b600052604160045260246000fd5b604051908082528060200260200182016040528015610af357816020015b610ae0612d9c565b815260200190600190039081610ad85790505b50905060005b84811015610e6f57600061010181610b128460016136a8565b8152602081019190915260400160009081206001908101546001600160a01b031692508290636352211e90610101908490610b4e9088906136a8565b8152602001908152602001600020600201546040518263ffffffff1660e01b8152600401610b7e91815260200190565b60206040518083038186803b158015610b9657600080fd5b505afa158015610baa573d6000803e3d6000fd5b505050506040513d601f19601f82011682018060405250810190610bce9190612f4a565b60405163e985e9c560e01b81526001600160a01b03808316600483015230602483015291925060009184169063e985e9c59060440160206040518083038186803b158015610c1b57600080fd5b505afa158015610c2f573d6000803e3d6000fd5b505050506040513d601f19601f82011682018060405250810190610c53919061309d565b9050600061010181610c668760016136a8565b81526020810191909152604001600020600401546001600160a01b0316148015610cbe57506101016000610c9b8660016136a8565b81526020810191909152604001600020600301546001600160a01b038381169116145b8015610cc75750805b15610e5957600061010181610cdd8760016136a8565b815260208082019290925260409081016000908120548082526101018452908290208251610160810184528154815260018201546001600160a01b039081169582019590955260028201549381019390935260038101548416606084015260048101549093166080830152600583015460a0830152600683018054919450839160c084019190610d6c90613746565b80601f0160208091040260200160405190810160405280929190818152602001828054610d9890613746565b8015610de55780601f10610dba57610100808354040283529160200191610de5565b820191906000526020600020905b815481529060010190602001808311610dc857829003601f168201915b5050509183525050600782015460208201526008820154604082015260098201546060820152600a9091015460ff161515608090910152875188908a908110610e3e57634e487b7160e01b600052603260045260246000fd5b6020908102919091010152610e546001896136a8565b975050505b5050508080610e6790613781565b915050610af9565b50935050505090565b60606000610e8560fb5490565b905060008060005b83811015610ee957336101016000610ea68460016136a8565b81526020810191909152604001600020600401546001600160a01b03161415610ed757610ed46001846136a8565b92505b80610ee181613781565b915050610e8d565b5060008267ffffffffffffffff811115610f1357634e487b7160e01b600052604160045260246000fd5b604051908082528060200260200182016040528015610f4c57816020015b610f39612d9c565b815260200190600190039081610f315790505b50905060005b84811015610e6f57336101016000610f6b8460016136a8565b81526020810191909152604001600020600401546001600160a01b0316141561111b57600061010181610f9f8460016136a8565b815260208082019290925260409081016000908120548082526101018452908290208251610160810184528154815260018201546001600160a01b039081169582019590955260028201549381019390935260038101548416606084015260048101549093166080830152600583015460a0830152600683018054919450839160c08401919061102e90613746565b80601f016020809104026020016040519081016040528092919081815260200182805461105a90613746565b80156110a75780601f1061107c576101008083540402835291602001916110a7565b820191906000526020600020905b81548152906001019060200180831161108a57829003601f168201915b5050509183525050600782015460208201526008820154604082015260098201546060820152600a9091015460ff161515608090910152845185908790811061110057634e487b7160e01b600052603260045260246000fd5b60209081029190910101526111166001866136a8565b945050505b8061112581613781565b915050610f52565b611135612d9c565b600061114060fb5490565b905061114a612d9c565b60015b82811161142f576000818152610101602090815260408083208151610160810183528154815260018201546001600160a01b039081169482019490945260028201549281019290925260038101548316606083015260048101549092166080820152600582015460a082015260068201805491929160c0840191906111d190613746565b80601f01602080910402602001604051908101604052809291908181526020018280546111fd90613746565b801561124a5780601f1061121f5761010080835404028352916020019161124a565b820191906000526020600020905b81548152906001019060200180831161122d57829003601f168201915b505050918352505060078201546020808301919091526008830154604083015260098301546060830152600a9092015460ff1615156080909101528101519091506001600160a01b0388811691161480156112a85750858160400151145b80156112bf575060808101516001600160a01b0316155b80156112ce5750610140810151155b1561141c57602081015160408083015190516331a9108f60e11b81526000916001600160a01b03841691636352211e9161130e9160040190815260200190565b60206040518083038186803b15801561132657600080fd5b505afa15801561133a573d6000803e3d6000fd5b505050506040513d601f19601f8201168201806040525081019061135e9190612f4a565b60405163e985e9c560e01b81526001600160a01b03808316600483015230602483015291925060009184169063e985e9c59060440160206040518083038186803b1580156113ab57600080fd5b505afa1580156113bf573d6000803e3d6000fd5b505050506040513d601f19601f820116820180604052508101906113e3919061309d565b905083606001516001600160a01b0316826001600160a01b03161480156114075750805b15611418578395505050505061142f565b5050505b508061142781613781565b91505061114d565b50949350505050565b306001600160a01b037f00000000000000000000000000000000000000000000000000000000000000001614156114815760405162461bcd60e51b815260040161051a906134c2565b7f00000000000000000000000000000000000000000000000000000000000000006001600160a01b03166114b361284e565b6001600160a01b0316146114d95760405162461bcd60e51b815260040161051a9061350e565b6114e28161287c565b604080516000808252602082019092526114fe918391906128a6565b50565b600080805b6000858152610102602052604090205481101561158e5760008581526101026020526040902080546001600160a01b03861691908390811061155857634e487b7160e01b600052603260045260246000fd5b6000918252602090912001546001600160a01b0316141561157c576001915061158e565b8061158681613781565b915050611506565b509392505050565b600080805b6000858152610102602052604090205481101561158e5760008581526101026020526040902080546001600160a01b0386169190839081106115ed57634e487b7160e01b600052603260045260246000fd5b6000918252602090912001546001600160a01b0316141561161f5760008581526101036020526040902054915061158e565b8061162981613781565b91505061159b565b306001600160a01b037f000000000000000000000000000000000000000000000000000000000000000016141561167a5760405162461bcd60e51b815260040161051a906134c2565b7f00000000000000000000000000000000000000000000000000000000000000006001600160a01b03166116ac61284e565b6001600160a01b0316146116d25760405162461bcd60e51b815260040161051a9061350e565b6116db8261287c565b6116e7828260016128a6565b5050565b6033546001600160a01b031633146117155760405162461bcd60e51b815260040161051a906135de565b60fe80546001600160a01b0319166001600160a01b0392909216919091179055565b6033546001600160a01b031633146117615760405162461bcd60e51b815260040161051a906135de565b61176b60006129f1565b565b6033546001600160a01b031633146117975760405162461bcd60e51b815260040161051a906135de565b60ff55565b600054610100900460ff166117b75760005460ff16156117bb565b303b155b61181e5760405162461bcd60e51b815260206004820152602e60248201527f496e697469616c697a61626c653a20636f6e747261637420697320616c72656160448201526d191e481a5b9a5d1a585b1a5e995960921b606482015260840161051a565b600054610100900460ff16158015611849576000805460ff1961ff0019909116610100171660011790555b611851612a43565b611859612a7a565b60fd80546001600160a01b03191673768532c218f4f4e6e4960ceea7f5a7a947a1dd61179055600060ff5580156114fe576000805461ff001916905550565b6000600260c95414156118bd5760405162461bcd60e51b815260040161051a9061365e565b600260c98190556000848152610101602090815260408083208151610160810183528154815260018201546001600160a01b0390811694820194909452948101549185019190915260038101548216606085015260048101549091166080840152600581015460a084015260068101805492939260c08401919061194090613746565b80601f016020809104026020016040519081016040528092919081815260200182805461196c90613746565b80156119b95780601f1061198e576101008083540402835291602001916119b9565b820191906000526020600020905b81548152906001019060200180831161199c57829003601f168201915b5050509183525050600782015460208201526008820154604082015260098201546060820152600a9091015460ff16151560809091015261014081015190915015611a165760405162461bcd60e51b815260040161051a9061359d565b60808101516001600160a01b031615611a715760405162461bcd60e51b815260206004820152601c60248201527f4d61726b6574206974656d20697320616c726561647920736f6c642e00000000604482015260640161051a565b611a96836040518060400160405280600381526020016221272160e91b815250612564565b80611ac15750611ac1836040518060400160405280600381526020016227aba760e91b815250612564565b611b075760405162461bcd60e51b815260206004820152601760248201527624b73b30b634b210383934b1b29031bab93932b731bc9760491b604482015260640161051a565b6101008101516000908152610104602052604090205460ff1615611b9257611b3481610100015133611501565b611b925760405162461bcd60e51b815260206004820152602960248201527f4f6e6c792074686f736520696e207468652077686974656c6973742063616e20604482015268383ab931b430b9b29760b91b606482015260840161051a565b611bb7836040518060400160405280600381526020016221272160e91b815250612564565b8015611be75750611be78160c001516040518060400160405280600381526020016221272160e91b815250612564565b15611c50578060a001513414611c0f5760405162461bcd60e51b815260040161051a906133f2565b60608101516040516001600160a01b03909116903480156108fc02916000818181858888f19350505050158015611c4a573d6000803e3d6000fd5b50611f9b565b611c75836040518060400160405280600381526020016227aba760e91b815250612564565b8015611ca55750611ca58160c001516040518060400160405280600381526020016227aba760e91b815250612564565b15611d9d5760fe546101008201516001600160a01b0390911690600090611ccc9033611596565b8360e00151611cdb91906136a8565b905060006064611ceb83826136ff565b8560a00151611cfa91906136e0565b611d0491906136c0565b60608501516040516323b872dd60e01b81523360048201526001600160a01b039182166024820152604481018390529192508416906323b872dd90606401602060405180830381600087803b158015611d5c57600080fd5b505af1158015611d70573d6000803e3d6000fd5b505050506040513d601f19601f82011682018060405250810190611d94919061309d565b50505050611f9b565b611dc2836040518060400160405280600381526020016227aba760e91b815250612564565b8015611df25750611df28160c001516040518060400160405280600381526020016221272160e91b815250612564565b15611ec757600060648260e001516064611e0c91906136ff565b611e21906a0422ca8b0a00a4250000006136e0565b611e2b91906136c0565b60fe5460608401516040516323b872dd60e01b81523360048201526001600160a01b03918216602482015260448101849052929350169081906323b872dd90606401602060405180830381600087803b158015611e8757600080fd5b505af1158015611e9b573d6000803e3d6000fd5b505050506040513d601f19601f82011682018060405250810190611ebf919061309d565b505050611f9b565b611eec836040518060400160405280600381526020016221272160e91b815250612564565b8015611f1c5750611f1c8160c001516040518060400160405280600381526020016227aba760e91b815250612564565b15611f9b5767016345785d8a0000611f3b660aa87bee538000826136ff565b905080341015611f5d5760405162461bcd60e51b815260040161051a906133f2565b60608201516040516001600160a01b03909116903480156108fc02916000818181858888f19350505050158015611f98573d6000803e3d6000fd5b50505b6020810151606082015160408084015190516323b872dd60e01b81526001600160a01b03928316600482015233602482015260448101919091529116906323b872dd90606401600060405180830381600087803b158015611ffb57600080fd5b505af115801561200f573d6000803e3d6000fd5b50505060008581526101016020526040902060040180546001600160a01b031916331790555061204360fc80546001019055565b6101208101511561208f5760fd546101208201516040516001600160a01b039092169181156108fc0291906000818181858888f1935050505015801561208d573d6000803e3d6000fd5b505b60405184907f5edde87e7efe9511fd280717315e9a4c5f46a6a84becfc74084b59e48154084490600090a25050600160c955506000919050565b6033546001600160a01b031633146120f35760405162461bcd60e51b815260040161051a906135de565b6001600160a01b0391821660009081526101006020526040902080546001600160a01b03191691909216179055565b600260c95414156121455760405162461bcd60e51b815260040161051a9061365e565b600260c98190556000828152610101602090815260408083208151610160810183528154815260018201546001600160a01b0390811694820194909452948101549185019190915260038101548216606085015260048101549091166080840152600581015460a084015260068101805492939260c0840191906121c890613746565b80601f01602080910402602001604051908101604052809291908181526020018280546121f490613746565b80156122415780601f1061221657610100808354040283529160200191612241565b820191906000526020600020905b81548152906001019060200180831161222457829003601f168201915b505050918352505060078201546020820152600882015460408201526009820154606080830191909152600a9092015460ff1615156080909101528101519091506001600160a01b031633146122d95760405162461bcd60e51b815260206004820181905260248201527f596f7520646f206e6f74206f776e2074686973206d61726b6574206974656d2e604482015260640161051a565b610140810151156122fc5760405162461bcd60e51b815260040161051a9061359d565b602081015160408083015190516331a9108f60e11b81526000916001600160a01b03841691636352211e916123379160040190815260200190565b60206040518083038186803b15801561234f57600080fd5b505afa158015612363573d6000803e3d6000fd5b505050506040513d601f19601f820116820180604052508101906123879190612f4a565b60405163e985e9c560e01b81526001600160a01b03808316600483015230602483015291925060009184169063e985e9c59060440160206040518083038186803b1580156123d457600080fd5b505afa1580156123e8573d6000803e3d6000fd5b505050506040513d601f19601f8201168201806040525081019061240c919061309d565b60808501519091506001600160a01b0316156124745760405162461bcd60e51b815260206004820152602160248201527f54686973206d61726b6574206974656d20697320616c726561647920736f6c646044820152601760f91b606482015260840161051a565b83606001516001600160a01b0316826001600160a01b0316146124a95760405162461bcd60e51b815260040161051a9061355a565b806124c65760405162461bcd60e51b815260040161051a90613459565b600085815261010160205260409020600a8101805460ff19166001179055600901541561252d5760008581526101016020526040808220600901549051339282156108fc02929190818181858888f1935050505015801561252b573d6000803e3d6000fd5b505b60405185907fb44d5981f3bd81a0185dad0967e03df817142f923e4b93a322e68f34ec23cba990600090a25050600160c955505050565b600081604051602001612577919061331e565b604051602081830303815290604052805190602001208360405160200161259e919061331e565b6040516020818303038152906040528051906020012014905092915050565b6033546001600160a01b031633146125e75760405162461bcd60e51b815260040161051a906135de565b60009182526101046020526040909120805460ff1916911515919091179055565b612610612d9c565b600082815261010160209081526040918290208251610160810184528154815260018201546001600160a01b039081169382019390935260028201549381019390935260038101548216606084015260048101549091166080830152600581015460a083015260068101805460c08401919061268b90613746565b80601f01602080910402602001604051908101604052809291908181526020018280546126b790613746565b80156127045780601f106126d957610100808354040283529160200191612704565b820191906000526020600020905b8154815290600101906020018083116126e757829003601f168201915b5050509183525050600782015460208201526008820154604082015260098201546060820152600a9091015460ff16151560809091015292915050565b6033546001600160a01b0316331461276b5760405162461bcd60e51b815260040161051a906135de565b60008481526101026020526040812061278391612e13565b60008481526101026020526040902061279d908484612e31565b5060009384526101036020526040909320929092555050565b6033546001600160a01b031633146127e05760405162461bcd60e51b815260040161051a906135de565b6001600160a01b0381166128455760405162461bcd60e51b815260206004820152602660248201527f4f776e61626c653a206e6577206f776e657220697320746865207a65726f206160448201526564647265737360d01b606482015260840161051a565b6114fe816129f1565b7f360894a13ba1a3210667c828492db98dca3e2076cc3735a920a3ca505d382bbc546001600160a01b031690565b6033546001600160a01b031633146114fe5760405162461bcd60e51b815260040161051a906135de565b60006128b061284e565b90506128bb84612ab1565b6000835111806128c85750815b156128d9576128d78484612b56565b505b7f4910fdfa16fed3260ed0e7147f7cc6da11a60208b5b9406d12a635614ffd9143805460ff166129ea57805460ff191660011781556040516001600160a01b038316602482015261295890869060440160408051601f198184030181529190526020810180516001600160e01b0316631b2ce7f360e11b179052612b56565b50805460ff1916815561296961284e565b6001600160a01b0316826001600160a01b0316146129e15760405162461bcd60e51b815260206004820152602f60248201527f45524331393637557067726164653a207570677261646520627265616b73206660448201526e75727468657220757067726164657360881b606482015260840161051a565b6129ea85612c41565b5050505050565b603380546001600160a01b038381166001600160a01b0319831681179093556040519116919082907f8be0079c531659141344cd1fd0a4f28419497f9722a3daafe3b4186f6b6457e090600090a35050565b600054610100900460ff16612a6a5760405162461bcd60e51b815260040161051a90613613565b612a72612c81565b61176b612ca8565b600054610100900460ff16612aa15760405162461bcd60e51b815260040161051a90613613565b612aa9612c81565b61176b612c81565b803b612b155760405162461bcd60e51b815260206004820152602d60248201527f455243313936373a206e657720696d706c656d656e746174696f6e206973206e60448201526c1bdd08184818dbdb9d1c9858dd609a1b606482015260840161051a565b7f360894a13ba1a3210667c828492db98dca3e2076cc3735a920a3ca505d382bbc80546001600160a01b0319166001600160a01b0392909216919091179055565b6060823b612bb55760405162461bcd60e51b815260206004820152602660248201527f416464726573733a2064656c65676174652063616c6c20746f206e6f6e2d636f6044820152651b9d1c9858dd60d21b606482015260840161051a565b600080846001600160a01b031684604051612bd0919061331e565b600060405180830381855af49150503d8060008114612c0b576040519150601f19603f3d011682016040523d82523d6000602084013e612c10565b606091505b5091509150612c3882826040518060600160405280602781526020016137ec60279139612cd8565b95945050505050565b612c4a81612ab1565b6040516001600160a01b038216907fbc7cd75a20ee27fd9adebab32041f755214dbc6bffa90cc0225b39da2e5c2d3b90600090a250565b600054610100900460ff1661176b5760405162461bcd60e51b815260040161051a90613613565b600054610100900460ff16612ccf5760405162461bcd60e51b815260040161051a90613613565b61176b336129f1565b60608315612ce7575081612d11565b825115612cf75782518084602001fd5b8160405162461bcd60e51b815260040161051a91906133df565b9392505050565b828054612d2490613746565b90600052602060002090601f016020900481019282612d465760008555612d8c565b82601f10612d5f57805160ff1916838001178555612d8c565b82800160010185558215612d8c579182015b82811115612d8c578251825591602001919060010190612d71565b50612d98929150612e84565b5090565b6040518061016001604052806000815260200160006001600160a01b031681526020016000815260200160006001600160a01b0316815260200160006001600160a01b0316815260200160008152602001606081526020016000815260200160008152602001600081526020016000151581525090565b50805460008255906000526020600020908101906114fe9190612e84565b828054828255906000526020600020908101928215612d8c579160200282015b82811115612d8c5781546001600160a01b0319166001600160a01b03843516178255602090920191600190910190612e51565b5b80821115612d985760008155600101612e85565b600067ffffffffffffffff80841115612eb457612eb46137b2565b604051601f8501601f19908116603f01168101908282118183101715612edc57612edc6137b2565b81604052809350858152868686011115612ef557600080fd5b858560208301376000602087830101525050509392505050565b600082601f830112612f1f578081fd5b612d1183833560208501612e99565b600060208284031215612f3f578081fd5b8135612d11816137c8565b600060208284031215612f5b578081fd5b8151612d11816137c8565b60008060408385031215612f78578081fd5b8235612f83816137c8565b91506020830135612f93816137c8565b809150509250929050565b60008060408385031215612fb0578182fd5b8235612fbb816137c8565b9150602083013567ffffffffffffffff811115612fd6578182fd5b8301601f81018513612fe6578182fd5b612ff585823560208401612e99565b9150509250929050565b60008060408385031215613011578182fd5b823561301c816137c8565b946020939093013593505050565b60008060008060008060c08789031215613042578182fd5b863561304d816137c8565b95506020870135945060408701359350606087013567ffffffffffffffff811115613076578283fd5b61308289828a01612f0f565b9350506080870135915060a087013590509295509295509295565b6000602082840312156130ae578081fd5b8151612d11816137dd565b600080604083850312156130cb578182fd5b823567ffffffffffffffff808211156130e2578384fd5b6130ee86838701612f0f565b93506020850135915080821115613103578283fd5b50612ff585828601612f0f565b600060208284031215613121578081fd5b5035919050565b6000806040838503121561313a578182fd5b823591506020830135612f93816137c8565b60008060008060608587031215613161578384fd5b84359350602085013567ffffffffffffffff8082111561317f578485fd5b818701915087601f830112613192578485fd5b8135818111156131a0578586fd5b88602080830285010111156131b3578586fd5b95986020929092019750949560400135945092505050565b600080604083850312156131dd578182fd5b823591506020830135612f93816137dd565b60008060408385031215613201578081fd5b82359150602083013567ffffffffffffffff81111561321e578182fd5b612ff585828601612f0f565b60008151808452613242816020860160208601613716565b601f01601f19169290920160200192915050565b600061016082518452602083015161327960208601826001600160a01b03169052565b5060408301516040850152606083015161329e60608601826001600160a01b03169052565b5060808301516132b960808601826001600160a01b03169052565b5060a083015160a085015260c08301518160c08601526132db8286018261322a565b91505060e083015160e0850152610100808401518186015250610120808401518186015250610140808401516133148287018215159052565b5090949350505050565b60008251613330818460208701613716565b9190910192915050565b600060018060a01b038816825286602083015260c0604083015261336160c083018761322a565b606083019590955250608081019290925260a0909101529392505050565b6000602080830181845280855180835260408601915060408482028701019250838701855b828110156133d257603f198886030184526133c0858351613256565b945092850192908501906001016133a4565b5092979650505050505050565b600060208252612d11602083018461322a565b60208082526041908201527f506c65617365207375626d6974207468652061736b696e67207072696365206960408201527f6e206f7264657220746f20636f6d706c657465207468652070757263686173656060820152601760f91b608082015260a00190565b60208082526043908201527f596f75206d7573742067697665207065726d697373696f6e20666f722074686960408201527f73206d61726b6574706c61636520746f2061636365737320796f757220746f6b60608201526232b71760e91b608082015260a00190565b6020808252602c908201527f46756e6374696f6e206d7573742062652063616c6c6564207468726f7567682060408201526b19195b1959d85d1958d85b1b60a21b606082015260800190565b6020808252602c908201527f46756e6374696f6e206d7573742062652063616c6c6564207468726f7567682060408201526b6163746976652070726f787960a01b606082015260800190565b60208082526023908201527f596f75206d75737420626520746865206f776e6572206f662074686520746f6b60408201526232b71760e91b606082015260800190565b60208082526021908201527f4d61726b6574206974656d20697320616c72656164792063616e63656c6c65646040820152601760f91b606082015260800190565b6020808252818101527f4f776e61626c653a2063616c6c6572206973206e6f7420746865206f776e6572604082015260600190565b6020808252602b908201527f496e697469616c697a61626c653a20636f6e7472616374206973206e6f74206960408201526a6e697469616c697a696e6760a81b606082015260800190565b6020808252601f908201527f5265656e7472616e637947756172643a207265656e7472616e742063616c6c00604082015260600190565b600060208252612d116020830184613256565b600082198211156136bb576136bb61379c565b500190565b6000826136db57634e487b7160e01b81526012600452602481fd5b500490565b60008160001904831182151516156136fa576136fa61379c565b500290565b6000828210156137115761371161379c565b500390565b60005b83811015613731578181015183820152602001613719565b83811115613740576000848401525b50505050565b60028104600182168061375a57607f821691505b6020821081141561377b57634e487b7160e01b600052602260045260246000fd5b50919050565b60006000198214156137955761379561379c565b5060010190565b634e487b7160e01b600052601160045260246000fd5b634e487b7160e01b600052604160045260246000fd5b6001600160a01b03811681146114fe57600080fd5b80151581146114fe57600080fdfe416464726573733a206c6f772d6c6576656c2064656c65676174652063616c6c206661696c6564a26469706673582212200ac08221c788d9ff37d8ecf7345840c90f577fdc7990d17df400b7c2972a81d264736f6c63430008020033",
  "linkReferences": {},
  "deployedLinkReferences": {}
}