{
  "_format": "hh-sol-artifact-1",
  "contractName": "MyERC721Token",
  "sourceName": "contracts/MyERC721Token.sol",
  "abi": [
    {
      "inputs": [],
      "stateMutability": "nonpayable",
      "type": "constructor"
    },
    {
      "anonymous": false,
      "inputs": [
        {
          "indexed": true,
          "internalType": "address",
          "name": "owner",
          "type": "address"
        },
        {
          "indexed": true,
          "internalType": "address",
          "name": "approved",
          "type": "address"
        },
        {
          "indexed": true,
          "internalType": "uint256",
          "name": "tokenId",
          "type": "uint256"
        }
      ],
      "name": "Approval",
      "type": "event"
    },
    {
      "anonymous": false,
      "inputs": [
        {
          "indexed": true,
          "internalType": "address",
          "name": "owner",
          "type": "address"
        },
        {
          "indexed": true,
          "internalType": "address",
          "name": "operator",
          "type": "address"
        },
        {
          "indexed": false,
          "internalType": "bool",
          "name": "approved",
          "type": "bool"
        }
      ],
      "name": "ApprovalForAll",
      "type": "event"
    },
    {
      "anonymous": false,
      "inputs": [
        {
          "indexed": true,
          "internalType": "address",
          "name": "previousOwner",
          "type": "address"
        },
        {
          "indexed": true,
          "internalType": "address",
          "name": "newOwner",
          "type": "address"
        }
      ],
      "name": "OwnershipTransferred",
      "type": "event"
    },
    {
      "anonymous": false,
      "inputs": [
        {
          "indexed": true,
          "internalType": "address",
          "name": "from",
          "type": "address"
        },
        {
          "indexed": true,
          "internalType": "address",
          "name": "to",
          "type": "address"
        },
        {
          "indexed": true,
          "internalType": "uint256",
          "name": "tokenId",
          "type": "uint256"
        }
      ],
      "name": "Transfer",
      "type": "event"
    },
    {
      "inputs": [
        {
          "internalType": "address",
          "name": "to",
          "type": "address"
        },
        {
          "internalType": "uint256",
          "name": "tokenId",
          "type": "uint256"
        }
      ],
      "name": "approve",
      "outputs": [],
      "stateMutability": "nonpayable",
      "type": "function"
    },
    {
      "inputs": [
        {
          "internalType": "address",
          "name": "owner",
          "type": "address"
        }
      ],
      "name": "balanceOf",
      "outputs": [
        {
          "internalType": "uint256",
          "name": "",
          "type": "uint256"
        }
      ],
      "stateMutability": "view",
      "type": "function"
    },
    {
      "inputs": [
        {
          "internalType": "uint256",
          "name": "tokenId",
          "type": "uint256"
        }
      ],
      "name": "getApproved",
      "outputs": [
        {
          "internalType": "address",
          "name": "",
          "type": "address"
        }
      ],
      "stateMutability": "view",
      "type": "function"
    },
    {
      "inputs": [
        {
          "internalType": "address",
          "name": "owner",
          "type": "address"
        },
        {
          "internalType": "address",
          "name": "operator",
          "type": "address"
        }
      ],
      "name": "isApprovedForAll",
      "outputs": [
        {
          "internalType": "bool",
          "name": "",
          "type": "bool"
        }
      ],
      "stateMutability": "view",
      "type": "function"
    },
    {
      "inputs": [],
      "name": "name",
      "outputs": [
        {
          "internalType": "string",
          "name": "",
          "type": "string"
        }
      ],
      "stateMutability": "view",
      "type": "function"
    },
    {
      "inputs": [],
      "name": "owner",
      "outputs": [
        {
          "internalType": "address",
          "name": "",
          "type": "address"
        }
      ],
      "stateMutability": "view",
      "type": "function"
    },
    {
      "inputs": [
        {
          "internalType": "uint256",
          "name": "tokenId",
          "type": "uint256"
        }
      ],
      "name": "ownerOf",
      "outputs": [
        {
          "internalType": "address",
          "name": "",
          "type": "address"
        }
      ],
      "stateMutability": "view",
      "type": "function"
    },
    {
      "inputs": [],
      "name": "renounceOwnership",
      "outputs": [],
      "stateMutability": "nonpayable",
      "type": "function"
    },
    {
      "inputs": [
        {
          "internalType": "address",
          "name": "to",
          "type": "address"
        }
      ],
      "name": "safeMint",
      "outputs": [],
      "stateMutability": "nonpayable",
      "type": "function"
    },
    {
      "inputs": [
        {
          "internalType": "address",
          "name": "from",
          "type": "address"
        },
        {
          "internalType": "address",
          "name": "to",
          "type": "address"
        },
        {
          "internalType": "uint256",
          "name": "tokenId",
          "type": "uint256"
        }
      ],
      "name": "safeTransferFrom",
      "outputs": [],
      "stateMutability": "nonpayable",
      "type": "function"
    },
    {
      "inputs": [
        {
          "internalType": "address",
          "name": "from",
          "type": "address"
        },
        {
          "internalType": "address",
          "name": "to",
          "type": "address"
        },
        {
          "internalType": "uint256",
          "name": "tokenId",
          "type": "uint256"
        },
        {
          "internalType": "bytes",
          "name": "_data",
          "type": "bytes"
        }
      ],
      "name": "safeTransferFrom",
      "outputs": [],
      "stateMutability": "nonpayable",
      "type": "function"
    },
    {
      "inputs": [
        {
          "internalType": "address",
          "name": "operator",
          "type": "address"
        },
        {
          "internalType": "bool",
          "name": "approved",
          "type": "bool"
        }
      ],
      "name": "setApprovalForAll",
      "outputs": [],
      "stateMutability": "nonpayable",
      "type": "function"
    },
    {
      "inputs": [
        {
          "internalType": "bytes4",
          "name": "interfaceId",
          "type": "bytes4"
        }
      ],
      "name": "supportsInterface",
      "outputs": [
        {
          "internalType": "bool",
          "name": "",
          "type": "bool"
        }
      ],
      "stateMutability": "view",
      "type": "function"
    },
    {
      "inputs": [],
      "name": "symbol",
      "outputs": [
        {
          "internalType": "string",
          "name": "",
          "type": "string"
        }
      ],
      "stateMutability": "view",
      "type": "function"
    },
    {
      "inputs": [
        {
          "internalType": "uint256",
          "name": "tokenId",
          "type": "uint256"
        }
      ],
      "name": "tokenURI",
      "outputs": [
        {
          "internalType": "string",
          "name": "",
          "type": "string"
        }
      ],
      "stateMutability": "view",
      "type": "function"
    },
    {
      "inputs": [
        {
          "internalType": "address",
          "name": "from",
          "type": "address"
        },
        {
          "internalType": "address",
          "name": "to",
          "type": "address"
        },
        {
          "internalType": "uint256",
          "name": "tokenId",
          "type": "uint256"
        }
      ],
      "name": "transferFrom",
      "outputs": [],
      "stateMutability": "nonpayable",
      "type": "function"
    },
    {
      "inputs": [
        {
          "internalType": "address",
          "name": "newOwner",
          "type": "address"
        }
      ],
      "name": "transferOwnership",
      "outputs": [],
      "stateMutability": "nonpayable",
      "type": "function"
    }
  ],
  "bytecode": "0x60806040523480156200001157600080fd5b506040518060400160405280600d81526020016c26bca2a9219b9918aa37b5b2b760991b8152506040518060400160405280600d81526020016c26aca2a9219b9918aa27a5a2a760991b81525081600090805190602001906200007692919062000105565b5080516200008c90600190602084019062000105565b505050620000a9620000a3620000af60201b60201c565b620000b3565b620001e8565b3390565b600680546001600160a01b038381166001600160a01b0319831681179093556040519116919082907f8be0079c531659141344cd1fd0a4f28419497f9722a3daafe3b4186f6b6457e090600090a35050565b8280546200011390620001ab565b90600052602060002090601f01602090048101928262000137576000855562000182565b82601f106200015257805160ff191683800117855562000182565b8280016001018555821562000182579182015b828111156200018257825182559160200191906001019062000165565b506200019092915062000194565b5090565b5b8082111562000190576000815560010162000195565b600281046001821680620001c057607f821691505b60208210811415620001e257634e487b7160e01b600052602260045260246000fd5b50919050565b61162680620001f86000396000f3fe608060405234801561001057600080fd5b506004361061010b5760003560e01c806370a08231116100a2578063a22cb46511610071578063a22cb4651461021b578063b88d4fde1461022e578063c87b56dd14610241578063e985e9c514610254578063f2fde38b146102905761010b565b806370a08231146101d9578063715018a6146101fa5780638da5cb5b1461020257806395d89b41146102135761010b565b806323b872dd116100de57806323b872dd1461018d57806340d097c3146101a057806342842e0e146101b35780636352211e146101c65761010b565b806301ffc9a71461011057806306fdde0314610138578063081812fc1461014d578063095ea7b314610178575b600080fd5b61012361011e3660046112ec565b6102a3565b60405190151581526020015b60405180910390f35b6101406102f7565b60405161012f91906113d4565b61016061015b366004611324565b610389565b6040516001600160a01b03909116815260200161012f565b61018b6101863660046112c3565b610423565b005b61018b61019b366004611179565b610539565b61018b6101ae36600461112d565b61056a565b61018b6101c1366004611179565b6105bd565b6101606101d4366004611324565b6105d8565b6101ec6101e736600461112d565b61064f565b60405190815260200161012f565b61018b6106d6565b6006546001600160a01b0316610160565b61014061070c565b61018b610229366004611289565b61071b565b61018b61023c3660046111b4565b610726565b61014061024f366004611324565b61075e565b610123610262366004611147565b6001600160a01b03918216600090815260056020908152604080832093909416825291909152205460ff1690565b61018b61029e36600461112d565b61086b565b60006001600160e01b031982166380ac58cd60e01b14806102d457506001600160e01b03198216635b5e139f60e01b145b806102ef57506301ffc9a760e01b6001600160e01b03198316145b90505b919050565b6060600080546103069061152e565b80601f01602080910402602001604051908101604052809291908181526020018280546103329061152e565b801561037f5780601f106103545761010080835404028352916020019161037f565b820191906000526020600020905b81548152906001019060200180831161036257829003601f168201915b5050505050905090565b6000818152600260205260408120546001600160a01b03166104075760405162461bcd60e51b815260206004820152602c60248201527f4552433732313a20617070726f76656420717565727920666f72206e6f6e657860448201526b34b9ba32b73a103a37b5b2b760a11b60648201526084015b60405180910390fd5b506000908152600460205260409020546001600160a01b031690565b600061042e826105d8565b9050806001600160a01b0316836001600160a01b0316141561049c5760405162461bcd60e51b815260206004820152602160248201527f4552433732313a20617070726f76616c20746f2063757272656e74206f776e656044820152603960f91b60648201526084016103fe565b336001600160a01b03821614806104b857506104b88133610262565b61052a5760405162461bcd60e51b815260206004820152603860248201527f4552433732313a20617070726f76652063616c6c6572206973206e6f74206f7760448201527f6e6572206e6f7220617070726f76656420666f7220616c6c000000000000000060648201526084016103fe565b6105348383610906565b505050565b6105433382610974565b61055f5760405162461bcd60e51b81526004016103fe9061146e565b610534838383610a6b565b6006546001600160a01b031633146105945760405162461bcd60e51b81526004016103fe90611439565b600061059f60075490565b90506105af600780546001019055565b6105b98282610c0b565b5050565b61053483838360405180602001604052806000815250610726565b6000818152600260205260408120546001600160a01b0316806102ef5760405162461bcd60e51b815260206004820152602960248201527f4552433732313a206f776e657220717565727920666f72206e6f6e657869737460448201526832b73a103a37b5b2b760b91b60648201526084016103fe565b60006001600160a01b0382166106ba5760405162461bcd60e51b815260206004820152602a60248201527f4552433732313a2062616c616e636520717565727920666f7220746865207a65604482015269726f206164647265737360b01b60648201526084016103fe565b506001600160a01b031660009081526003602052604090205490565b6006546001600160a01b031633146107005760405162461bcd60e51b81526004016103fe90611439565b61070a6000610c25565b565b6060600180546103069061152e565b6105b9338383610c77565b6107303383610974565b61074c5760405162461bcd60e51b81526004016103fe9061146e565b61075884848484610d46565b50505050565b6000818152600260205260409020546060906001600160a01b03166107dd5760405162461bcd60e51b815260206004820152602f60248201527f4552433732314d657461646174613a2055524920717565727920666f72206e6f60448201526e3732bc34b9ba32b73a103a37b5b2b760891b60648201526084016103fe565b600061081960408051808201909152601981527f68747470733a2f2f6f776e6c792e696f2f6e66742f6170692f00000000000000602082015290565b905060008151116108395760405180602001604052806000815250610864565b8061084384610d79565b604051602001610854929190611368565b6040516020818303038152906040525b9392505050565b6006546001600160a01b031633146108955760405162461bcd60e51b81526004016103fe90611439565b6001600160a01b0381166108fa5760405162461bcd60e51b815260206004820152602660248201527f4f776e61626c653a206e6577206f776e657220697320746865207a65726f206160448201526564647265737360d01b60648201526084016103fe565b61090381610c25565b50565b600081815260046020526040902080546001600160a01b0319166001600160a01b038416908117909155819061093b826105d8565b6001600160a01b03167f8c5be1e5ebec7d5bd14f71427d1e84f3dd0314c0f7b2291e5b200ac8c7c3b92560405160405180910390a45050565b6000818152600260205260408120546001600160a01b03166109ed5760405162461bcd60e51b815260206004820152602c60248201527f4552433732313a206f70657261746f7220717565727920666f72206e6f6e657860448201526b34b9ba32b73a103a37b5b2b760a11b60648201526084016103fe565b60006109f8836105d8565b9050806001600160a01b0316846001600160a01b03161480610a335750836001600160a01b0316610a2884610389565b6001600160a01b0316145b80610a6357506001600160a01b0380821660009081526005602090815260408083209388168352929052205460ff165b949350505050565b826001600160a01b0316610a7e826105d8565b6001600160a01b031614610ae65760405162461bcd60e51b815260206004820152602960248201527f4552433732313a207472616e73666572206f6620746f6b656e2074686174206960448201526839903737ba1037bbb760b91b60648201526084016103fe565b6001600160a01b038216610b485760405162461bcd60e51b8152602060048201526024808201527f4552433732313a207472616e7366657220746f20746865207a65726f206164646044820152637265737360e01b60648201526084016103fe565b610b53600082610906565b6001600160a01b0383166000908152600360205260408120805460019290610b7c9084906114eb565b90915550506001600160a01b0382166000908152600360205260408120805460019290610baa9084906114bf565b909155505060008181526002602052604080822080546001600160a01b0319166001600160a01b0386811691821790925591518493918716917fddf252ad1be2c89b69c2b068fc378daa952ba7f163c4a11628f55a4df523b3ef91a4505050565b6105b9828260405180602001604052806000815250610e94565b600680546001600160a01b038381166001600160a01b0319831681179093556040519116919082907f8be0079c531659141344cd1fd0a4f28419497f9722a3daafe3b4186f6b6457e090600090a35050565b816001600160a01b0316836001600160a01b03161415610cd95760405162461bcd60e51b815260206004820152601960248201527f4552433732313a20617070726f766520746f2063616c6c65720000000000000060448201526064016103fe565b6001600160a01b03838116600081815260056020908152604080832094871680845294825291829020805460ff191686151590811790915591519182527f17307eab39ab6107e8899845ad3d59bd9653f200f220920489ca2b5937696c31910160405180910390a3505050565b610d51848484610a6b565b610d5d84848484610ec7565b6107585760405162461bcd60e51b81526004016103fe906113e7565b606081610d9e57506040805180820190915260018152600360fc1b60208201526102f2565b8160005b8115610dc85780610db281611569565b9150610dc19050600a836114d7565b9150610da2565b60008167ffffffffffffffff811115610df157634e487b7160e01b600052604160045260246000fd5b6040519080825280601f01601f191660200182016040528015610e1b576020820181803683370190505b5090505b8415610a6357610e306001836114eb565b9150610e3d600a86611584565b610e489060306114bf565b60f81b818381518110610e6b57634e487b7160e01b600052603260045260246000fd5b60200101906001600160f81b031916908160001a905350610e8d600a866114d7565b9450610e1f565b610e9e8383610fd4565b610eab6000848484610ec7565b6105345760405162461bcd60e51b81526004016103fe906113e7565b60006001600160a01b0384163b15610fc957604051630a85bd0160e11b81526001600160a01b0385169063150b7a0290610f0b903390899088908890600401611397565b602060405180830381600087803b158015610f2557600080fd5b505af1925050508015610f55575060408051601f3d908101601f19168201909252610f5291810190611308565b60015b610faf573d808015610f83576040519150601f19603f3d011682016040523d82523d6000602084013e610f88565b606091505b508051610fa75760405162461bcd60e51b81526004016103fe906113e7565b805181602001fd5b6001600160e01b031916630a85bd0160e11b149050610a63565b506001949350505050565b6001600160a01b03821661102a5760405162461bcd60e51b815260206004820181905260248201527f4552433732313a206d696e7420746f20746865207a65726f206164647265737360448201526064016103fe565b6000818152600260205260409020546001600160a01b03161561108f5760405162461bcd60e51b815260206004820152601c60248201527f4552433732313a20746f6b656e20616c7265616479206d696e7465640000000060448201526064016103fe565b6001600160a01b03821660009081526003602052604081208054600192906110b89084906114bf565b909155505060008181526002602052604080822080546001600160a01b0319166001600160a01b03861690811790915590518392907fddf252ad1be2c89b69c2b068fc378daa952ba7f163c4a11628f55a4df523b3ef908290a45050565b80356001600160a01b03811681146102f257600080fd5b60006020828403121561113e578081fd5b61086482611116565b60008060408385031215611159578081fd5b61116283611116565b915061117060208401611116565b90509250929050565b60008060006060848603121561118d578081fd5b61119684611116565b92506111a460208501611116565b9150604084013590509250925092565b600080600080608085870312156111c9578081fd5b6111d285611116565b93506111e060208601611116565b925060408501359150606085013567ffffffffffffffff80821115611203578283fd5b818701915087601f830112611216578283fd5b813581811115611228576112286115c4565b604051601f8201601f19908116603f01168101908382118183101715611250576112506115c4565b816040528281528a6020848701011115611268578586fd5b82602086016020830137918201602001949094529598949750929550505050565b6000806040838503121561129b578182fd5b6112a483611116565b9150602083013580151581146112b8578182fd5b809150509250929050565b600080604083850312156112d5578182fd5b6112de83611116565b946020939093013593505050565b6000602082840312156112fd578081fd5b8135610864816115da565b600060208284031215611319578081fd5b8151610864816115da565b600060208284031215611335578081fd5b5035919050565b60008151808452611354816020860160208601611502565b601f01601f19169290920160200192915050565b6000835161137a818460208801611502565b83519083019061138e818360208801611502565b01949350505050565b6001600160a01b03858116825284166020820152604081018390526080606082018190526000906113ca9083018461133c565b9695505050505050565b600060208252610864602083018461133c565b60208082526032908201527f4552433732313a207472616e7366657220746f206e6f6e20455243373231526560408201527131b2b4bb32b91034b6b83632b6b2b73a32b960711b606082015260800190565b6020808252818101527f4f776e61626c653a2063616c6c6572206973206e6f7420746865206f776e6572604082015260600190565b60208082526031908201527f4552433732313a207472616e736665722063616c6c6572206973206e6f74206f6040820152701ddb995c881b9bdc88185c1c1c9bdd9959607a1b606082015260800190565b600082198211156114d2576114d2611598565b500190565b6000826114e6576114e66115ae565b500490565b6000828210156114fd576114fd611598565b500390565b60005b8381101561151d578181015183820152602001611505565b838111156107585750506000910152565b60028104600182168061154257607f821691505b6020821081141561156357634e487b7160e01b600052602260045260246000fd5b50919050565b600060001982141561157d5761157d611598565b5060010190565b600082611593576115936115ae565b500690565b634e487b7160e01b600052601160045260246000fd5b634e487b7160e01b600052601260045260246000fd5b634e487b7160e01b600052604160045260246000fd5b6001600160e01b03198116811461090357600080fdfea26469706673582212205320ef57d64481fa629da703e77341c7310c309bfd9d89fba6f1aa1f1320558664736f6c63430008020033",
  "linkReferences": {},
  "deployedLinkReferences": {}
}