{
  "_format": "hh-sol-artifact-1",
  "contractName": "MarketplaceEth",
  "sourceName": "contracts/MarketplaceEth.sol",
  "abi": [
    {
      "anonymous": false,
      "inputs": [
        {
          "indexed": false,
          "internalType": "address",
          "name": "previousAdmin",
          "type": "address"
        },
        {
          "indexed": false,
          "internalType": "address",
          "name": "newAdmin",
          "type": "address"
        }
      ],
      "name": "AdminChanged",
      "type": "event"
    },
    {
      "anonymous": false,
      "inputs": [
        {
          "indexed": true,
          "internalType": "address",
          "name": "beacon",
          "type": "address"
        }
      ],
      "name": "BeaconUpgraded",
      "type": "event"
    },
    {
      "anonymous": false,
      "inputs": [
        {
          "indexed": true,
          "internalType": "uint256",
          "name": "itemId",
          "type": "uint256"
        }
      ],
      "name": "MarketItemCancelled",
      "type": "event"
    },
    {
      "anonymous": false,
      "inputs": [
        {
          "indexed": true,
          "internalType": "uint256",
          "name": "itemId",
          "type": "uint256"
        },
        {
          "indexed": true,
          "internalType": "address",
          "name": "nftContract",
          "type": "address"
        },
        {
          "indexed": true,
          "internalType": "uint256",
          "name": "tokenId",
          "type": "uint256"
        },
        {
          "indexed": false,
          "internalType": "address",
          "name": "seller",
          "type": "address"
        },
        {
          "indexed": false,
          "internalType": "uint256",
          "name": "price",
          "type": "uint256"
        },
        {
          "indexed": false,
          "internalType": "uint256",
          "name": "listingPrice",
          "type": "uint256"
        }
      ],
      "name": "MarketItemCreated",
      "type": "event"
    },
    {
      "anonymous": false,
      "inputs": [
        {
          "indexed": true,
          "internalType": "uint256",
          "name": "itemId",
          "type": "uint256"
        }
      ],
      "name": "MarketItemSold",
      "type": "event"
    },
    {
      "anonymous": false,
      "inputs": [
        {
          "indexed": true,
          "internalType": "address",
          "name": "previousOwner",
          "type": "address"
        },
        {
          "indexed": true,
          "internalType": "address",
          "name": "newOwner",
          "type": "address"
        }
      ],
      "name": "OwnershipTransferred",
      "type": "event"
    },
    {
      "anonymous": false,
      "inputs": [
        {
          "indexed": true,
          "internalType": "address",
          "name": "implementation",
          "type": "address"
        }
      ],
      "name": "Upgraded",
      "type": "event"
    },
    {
      "inputs": [
        {
          "internalType": "address",
          "name": "_contractAddress",
          "type": "address"
        },
        {
          "internalType": "address",
          "name": "_owner",
          "type": "address"
        }
      ],
      "name": "addNftFirstOwner",
      "outputs": [],
      "stateMutability": "nonpayable",
      "type": "function"
    },
    {
      "inputs": [
        {
          "internalType": "uint256",
          "name": "itemId",
          "type": "uint256"
        }
      ],
      "name": "cancelMarketItem",
      "outputs": [],
      "stateMutability": "nonpayable",
      "type": "function"
    },
    {
      "inputs": [
        {
          "internalType": "string",
          "name": "a",
          "type": "string"
        },
        {
          "internalType": "string",
          "name": "b",
          "type": "string"
        }
      ],
      "name": "compareStrings",
      "outputs": [
        {
          "internalType": "bool",
          "name": "",
          "type": "bool"
        }
      ],
      "stateMutability": "view",
      "type": "function"
    },
    {
      "inputs": [
        {
          "internalType": "address",
          "name": "nftContractAddress",
          "type": "address"
        },
        {
          "internalType": "uint256",
          "name": "tokenId",
          "type": "uint256"
        },
        {
          "internalType": "uint256",
          "name": "price",
          "type": "uint256"
        }
      ],
      "name": "createMarketItem",
      "outputs": [],
      "stateMutability": "payable",
      "type": "function"
    },
    {
      "inputs": [
        {
          "internalType": "uint256",
          "name": "itemId",
          "type": "uint256"
        }
      ],
      "name": "createMarketSale",
      "outputs": [
        {
          "internalType": "uint256",
          "name": "",
          "type": "uint256"
        }
      ],
      "stateMutability": "payable",
      "type": "function"
    },
    {
      "inputs": [
        {
          "internalType": "address",
          "name": "nftContractAddress",
          "type": "address"
        },
        {
          "internalType": "uint256",
          "name": "tokenId",
          "type": "uint256"
        }
      ],
      "name": "fetchMarketItem",
      "outputs": [
        {
          "components": [
            {
              "internalType": "uint256",
              "name": "itemId",
              "type": "uint256"
            },
            {
              "internalType": "address",
              "name": "nftContract",
              "type": "address"
            },
            {
              "internalType": "uint256",
              "name": "tokenId",
              "type": "uint256"
            },
            {
              "internalType": "address payable",
              "name": "seller",
              "type": "address"
            },
            {
              "internalType": "address payable",
              "name": "owner",
              "type": "address"
            },
            {
              "internalType": "uint256",
              "name": "price",
              "type": "uint256"
            },
            {
              "internalType": "uint256",
              "name": "listingPrice",
              "type": "uint256"
            },
            {
              "internalType": "bool",
              "name": "cancelled",
              "type": "bool"
            }
          ],
          "internalType": "struct MarketplaceEth.MarketItem",
          "name": "",
          "type": "tuple"
        }
      ],
      "stateMutability": "view",
      "type": "function"
    },
    {
      "inputs": [],
      "name": "fetchMarketItems",
      "outputs": [
        {
          "components": [
            {
              "internalType": "uint256",
              "name": "itemId",
              "type": "uint256"
            },
            {
              "internalType": "address",
              "name": "nftContract",
              "type": "address"
            },
            {
              "internalType": "uint256",
              "name": "tokenId",
              "type": "uint256"
            },
            {
              "internalType": "address payable",
              "name": "seller",
              "type": "address"
            },
            {
              "internalType": "address payable",
              "name": "owner",
              "type": "address"
            },
            {
              "internalType": "uint256",
              "name": "price",
              "type": "uint256"
            },
            {
              "internalType": "uint256",
              "name": "listingPrice",
              "type": "uint256"
            },
            {
              "internalType": "bool",
              "name": "cancelled",
              "type": "bool"
            }
          ],
          "internalType": "struct MarketplaceEth.MarketItem[]",
          "name": "",
          "type": "tuple[]"
        }
      ],
      "stateMutability": "view",
      "type": "function"
    },
    {
      "inputs": [],
      "name": "fetchMyNFTs",
      "outputs": [
        {
          "components": [
            {
              "internalType": "uint256",
              "name": "itemId",
              "type": "uint256"
            },
            {
              "internalType": "address",
              "name": "nftContract",
              "type": "address"
            },
            {
              "internalType": "uint256",
              "name": "tokenId",
              "type": "uint256"
            },
            {
              "internalType": "address payable",
              "name": "seller",
              "type": "address"
            },
            {
              "internalType": "address payable",
              "name": "owner",
              "type": "address"
            },
            {
              "internalType": "uint256",
              "name": "price",
              "type": "uint256"
            },
            {
              "internalType": "uint256",
              "name": "listingPrice",
              "type": "uint256"
            },
            {
              "internalType": "bool",
              "name": "cancelled",
              "type": "bool"
            }
          ],
          "internalType": "struct MarketplaceEth.MarketItem[]",
          "name": "",
          "type": "tuple[]"
        }
      ],
      "stateMutability": "view",
      "type": "function"
    },
    {
      "inputs": [],
      "name": "getListingPrice",
      "outputs": [
        {
          "internalType": "uint256",
          "name": "",
          "type": "uint256"
        }
      ],
      "stateMutability": "view",
      "type": "function"
    },
    {
      "inputs": [
        {
          "internalType": "uint256",
          "name": "marketItemId",
          "type": "uint256"
        }
      ],
      "name": "getMarketItem",
      "outputs": [
        {
          "components": [
            {
              "internalType": "uint256",
              "name": "itemId",
              "type": "uint256"
            },
            {
              "internalType": "address",
              "name": "nftContract",
              "type": "address"
            },
            {
              "internalType": "uint256",
              "name": "tokenId",
              "type": "uint256"
            },
            {
              "internalType": "address payable",
              "name": "seller",
              "type": "address"
            },
            {
              "internalType": "address payable",
              "name": "owner",
              "type": "address"
            },
            {
              "internalType": "uint256",
              "name": "price",
              "type": "uint256"
            },
            {
              "internalType": "uint256",
              "name": "listingPrice",
              "type": "uint256"
            },
            {
              "internalType": "bool",
              "name": "cancelled",
              "type": "bool"
            }
          ],
          "internalType": "struct MarketplaceEth.MarketItem",
          "name": "",
          "type": "tuple"
        }
      ],
      "stateMutability": "view",
      "type": "function"
    },
    {
      "inputs": [
        {
          "internalType": "address",
          "name": "_contractAddress",
          "type": "address"
        }
      ],
      "name": "getNftFirstOwner",
      "outputs": [
        {
          "internalType": "address",
          "name": "",
          "type": "address"
        }
      ],
      "stateMutability": "view",
      "type": "function"
    },
    {
      "inputs": [],
      "name": "initialize",
      "outputs": [],
      "stateMutability": "nonpayable",
      "type": "function"
    },
    {
      "inputs": [],
      "name": "owner",
      "outputs": [
        {
          "internalType": "address",
          "name": "",
          "type": "address"
        }
      ],
      "stateMutability": "view",
      "type": "function"
    },
    {
      "inputs": [],
      "name": "renounceOwnership",
      "outputs": [],
      "stateMutability": "nonpayable",
      "type": "function"
    },
    {
      "inputs": [
        {
          "internalType": "uint256",
          "name": "_listingPrice",
          "type": "uint256"
        }
      ],
      "name": "setListingPrice",
      "outputs": [],
      "stateMutability": "nonpayable",
      "type": "function"
    },
    {
      "inputs": [
        {
          "internalType": "address",
          "name": "newOwner",
          "type": "address"
        }
      ],
      "name": "transferOwnership",
      "outputs": [],
      "stateMutability": "nonpayable",
      "type": "function"
    },
    {
      "inputs": [
        {
          "internalType": "address",
          "name": "newImplementation",
          "type": "address"
        }
      ],
      "name": "upgradeTo",
      "outputs": [],
      "stateMutability": "nonpayable",
      "type": "function"
    },
    {
      "inputs": [
        {
          "internalType": "address",
          "name": "newImplementation",
          "type": "address"
        },
        {
          "internalType": "bytes",
          "name": "data",
          "type": "bytes"
        }
      ],
      "name": "upgradeToAndCall",
      "outputs": [],
      "stateMutability": "payable",
      "type": "function"
    },
    {
      "inputs": [],
      "name": "version",
      "outputs": [
        {
          "internalType": "string",
          "name": "",
          "type": "string"
        }
      ],
      "stateMutability": "pure",
      "type": "function"
    }
  ],
  "bytecode": "0x60a06040523060601b60805234801561001757600080fd5b5060805160601c6125f761004b60003960008181610c5901528181610ca201528181610d2b0152610d6b01526125f76000f3fe6080604052600436106101145760003560e01c8063715018a6116100a0578063a6e22b0211610064578063a6e22b02146102f7578063be9af53614610317578063bed34bba1461032a578063c7be7a491461035a578063f2fde38b1461037a57610114565b8063715018a61461026f5780637c726b69146102845780638129fc1c146102a45780638da5cb5b146102b9578063a3621108146102d757610114565b80633659cfe6116100e75780633659cfe6146101a55780634f1ef286146101c757806354fd4d50146101da57806358eb2df51461020b5780636c24891d1461021e57610114565b80630f08efe01461011957806312e8558514610144578063202e3740146101635780632e41f5fa14610178575b600080fd5b34801561012557600080fd5b5061012e61039a565b60405161013b9190612255565b60405180910390f35b34801561015057600080fd5b5060fe545b60405190815260200161013b565b34801561016f57600080fd5b5061012e6106fe565b34801561018457600080fd5b506101986101933660046120eb565b610906565b60405161013b91906124d0565b3480156101b157600080fd5b506101c56101c036600461201a565b610c4e565b005b6101c56101d536600461208a565b610d20565b3480156101e657600080fd5b506040805180820182526002815261763160f01b6020820152905161013b91906122a4565b6101c5610219366004612116565b610dda565b34801561022a57600080fd5b5061025761023936600461201a565b6001600160a01b03908116600090815260ff60205260409020541690565b6040516001600160a01b03909116815260200161013b565b34801561027b57600080fd5b506101c5611226565b34801561029057600080fd5b506101c561029f3660046121c1565b61125c565b3480156102b057600080fd5b506101c561128b565b3480156102c557600080fd5b506033546001600160a01b0316610257565b3480156102e357600080fd5b506101c56102f2366004612052565b611387565b34801561030357600080fd5b506101c56103123660046121c1565b6113df565b6101556103253660046121c1565b611692565b34801561033657600080fd5b5061034a61034536600461216a565b6118e0565b604051901515815260200161013b565b34801561036657600080fd5b506101986103753660046121c1565b611939565b34801561038657600080fd5b506101c561039536600461201a565b6119c1565b606060006103a760fb5490565b905060006103b460fc5490565b60fb546103c191906124f7565b90506000808267ffffffffffffffff8111156103ed57634e487b7160e01b600052604160045260246000fd5b60405190808252806020026020018201604052801561042657816020015b610413611f23565b81526020019060019003908161040b5790505b50905060005b848110156106f5576000610100816104458460016124df565b8152602081019190915260400160009081206001908101546001600160a01b031692508290636352211e906101009084906104819088906124df565b8152602001908152602001600020600201546040518263ffffffff1660e01b81526004016104b191815260200190565b60206040518083038186803b1580156104c957600080fd5b505afa1580156104dd573d6000803e3d6000fd5b505050506040513d601f19601f820116820180604052508101906105019190612036565b60405163e985e9c560e01b81526001600160a01b03808316600483015230602483015291925060009184169063e985e9c59060440160206040518083038186803b15801561054e57600080fd5b505afa158015610562573d6000803e3d6000fd5b505050506040513d601f19601f82011682018060405250810190610586919061214a565b90506000610100816105998760016124df565b81526020810191909152604001600020600401546001600160a01b03161480156105f1575061010060006105ce8660016124df565b81526020810191909152604001600020600301546001600160a01b038381169116145b80156105fa5750805b156106df576000610100816106108760016124df565b8152602080820192909252604090810160009081205480825261010080855291839020835192830184528054835260018101546001600160a01b039081169584019590955260028101549383019390935260038301548416606083015260048301549093166080820152600582015460a0820152600682015460c0820152600782015460ff16151560e08201528851929350909188908a9081106106c457634e487b7160e01b600052603260045260246000fd5b60209081029190910101526106da6001896124df565b975050505b50505080806106ed9061253e565b91505061042c565b50935050505090565b6060600061070b60fb5490565b905060008060005b8381101561076f5733610100600061072c8460016124df565b81526020810191909152604001600020600401546001600160a01b0316141561075d5761075a6001846124df565b92505b806107678161253e565b915050610713565b5060008267ffffffffffffffff81111561079957634e487b7160e01b600052604160045260246000fd5b6040519080825280602002602001820160405280156107d257816020015b6107bf611f23565b8152602001906001900390816107b75790505b50905060005b848110156106f5573361010060006107f18460016124df565b81526020810191909152604001600020600401546001600160a01b031614156108f4576000610100816108258460016124df565b8152602080820192909252604090810160009081205480825261010080855291839020835192830184528054835260018101546001600160a01b039081169584019590955260028101549383019390935260038301548416606083015260048301549093166080820152600582015460a0820152600682015460c0820152600782015460ff16151560e0820152855192935090918590879081106108d957634e487b7160e01b600052603260045260246000fd5b60209081029190910101526108ef6001866124df565b945050505b806108fe8161253e565b9150506107d8565b61090e611f23565b600061091960fb5490565b9050610923611f23565b60005b82811015610c43576001600160a01b03861661010060006109488460016124df565b81526020810191909152604001600020600101546001600160a01b0316148015610992575084610100600061097e8460016124df565b815260200190815260200160002060020154145b80156109c957506000610100816109aa8460016124df565b81526020810191909152604001600020600401546001600160a01b0316145b80156109f9575061010060006109e08360016124df565b815260208101919091526040016000206007015460ff16155b15610c3157600061010081610a0f8460016124df565b8152602081019190915260400160009081206001908101546001600160a01b031692508290636352211e90610100908490610a4b9088906124df565b8152602001908152602001600020600201546040518263ffffffff1660e01b8152600401610a7b91815260200190565b60206040518083038186803b158015610a9357600080fd5b505afa158015610aa7573d6000803e3d6000fd5b505050506040513d601f19601f82011682018060405250810190610acb9190612036565b60405163e985e9c560e01b81526001600160a01b03808316600483015230602483015291925060009184169063e985e9c59060440160206040518083038186803b158015610b1857600080fd5b505afa158015610b2c573d6000803e3d6000fd5b505050506040513d601f19601f82011682018060405250810190610b50919061214a565b90506101006000610b628660016124df565b81526020810191909152604001600020600301546001600160a01b038381169116148015610b8d5750805b15610c2d576101006000610ba28660016124df565b815260208082019290925260409081016000208151610100810183528154815260018201546001600160a01b039081169482019490945260028201549281019290925260038101548316606083015260048101549092166080820152600582015460a0820152600682015460c082015260079091015460ff16151560e08201529450610c4392505050565b5050505b80610c3b8161253e565b915050610926565b509150505b92915050565b306001600160a01b037f0000000000000000000000000000000000000000000000000000000000000000161415610ca05760405162461bcd60e51b8152600401610c979061233f565b60405180910390fd5b7f00000000000000000000000000000000000000000000000000000000000000006001600160a01b0316610cd2611a59565b6001600160a01b031614610cf85760405162461bcd60e51b8152600401610c97906123cd565b610d0181611a87565b60408051600080825260208201909252610d1d91839190611ab1565b50565b306001600160a01b037f0000000000000000000000000000000000000000000000000000000000000000161415610d695760405162461bcd60e51b8152600401610c979061233f565b7f00000000000000000000000000000000000000000000000000000000000000006001600160a01b0316610d9b611a59565b6001600160a01b031614610dc15760405162461bcd60e51b8152600401610c97906123cd565b610dca82611a87565b610dd682826001611ab1565b5050565b600260c9541415610dfd5760405162461bcd60e51b8152600401610c9790612499565b600260c9556040516331a9108f60e11b81526004810183905283906000906001600160a01b03831690636352211e9060240160206040518083038186803b158015610e4757600080fd5b505afa158015610e5b573d6000803e3d6000fd5b505050506040513d601f19601f82011682018060405250810190610e7f9190612036565b60405163e985e9c560e01b81526001600160a01b03808316600483015230602483015291925060009184169063e985e9c59060440160206040518083038186803b158015610ecc57600080fd5b505afa158015610ee0573d6000803e3d6000fd5b505050506040513d601f19601f82011682018060405250810190610f04919061214a565b90506001600160a01b0382163314610f2e5760405162461bcd60e51b8152600401610c979061238b565b80610f4b5760405162461bcd60e51b8152600401610c97906122d7565b60008411610f9b5760405162461bcd60e51b815260206004820152601c60248201527f5072696365206d757374206265206174206c65617374203120776569000000006044820152606401610c97565b60fe543414610ff85760405162461bcd60e51b8152602060048201526024808201527f56616c7565206d75737420626520657175616c20746f206c697374696e6720706044820152637269636560e01b6064820152608401610c97565b60006110048787610906565b8051909150156110565760405162461bcd60e51b815260206004820152601a60248201527f4d61726b6574206974656d20616c7265616479206578697374730000000000006044820152606401610c97565b61106460fb80546001019055565b600061106f60fb5490565b9050604051806101000160405280828152602001896001600160a01b03168152602001888152602001336001600160a01b0316815260200160006001600160a01b0316815260200187815260200160fe5481526020016000151581525061010060008381526020019081526020016000206000820151816000015560208201518160010160006101000a8154816001600160a01b0302191690836001600160a01b031602179055506040820151816002015560608201518160030160006101000a8154816001600160a01b0302191690836001600160a01b0316021790555060808201518160040160006101000a8154816001600160a01b0302191690836001600160a01b0316021790555060a0820151816005015560c0820151816006015560e08201518160070160006101000a81548160ff02191690831515021790555090505086886001600160a01b0316827f0577ba4f9e422b352c9a2a6dcafa535fe95af69d985d741e4af739183532ffb4338a60fe5460405161120f939291906001600160a01b039390931683526020830191909152604082015260600190565b60405180910390a45050600160c955505050505050565b6033546001600160a01b031633146112505760405162461bcd60e51b8152600401610c9790612419565b61125a6000611bfc565b565b6033546001600160a01b031633146112865760405162461bcd60e51b8152600401610c9790612419565b60fe55565b600054610100900460ff166112a65760005460ff16156112aa565b303b155b61130d5760405162461bcd60e51b815260206004820152602e60248201527f496e697469616c697a61626c653a20636f6e747261637420697320616c72656160448201526d191e481a5b9a5d1a585b1a5e995960921b6064820152608401610c97565b600054610100900460ff16158015611338576000805460ff1961ff0019909116610100171660011790555b611340611c4e565b611348611c85565b60fd80546001600160a01b03191673672b733c5350034ccbd265aa7636c3ebdda2223b179055600060fe558015610d1d576000805461ff001916905550565b6033546001600160a01b031633146113b15760405162461bcd60e51b8152600401610c9790612419565b6001600160a01b03918216600090815260ff6020526040902080546001600160a01b03191691909216179055565b600260c95414156114025760405162461bcd60e51b8152600401610c9790612499565b600260c9556000818152610100602052604090206007015460ff161561146a5760405162461bcd60e51b815260206004820181905260248201527f4d61726b6574206974656d20697320616c72656164792063616e63656c6c65646044820152606401610c97565b60008181526101006020526040808220600181015460029091015491516331a9108f60e11b815260048101929092526001600160a01b031691908290636352211e9060240160206040518083038186803b1580156114c757600080fd5b505afa1580156114db573d6000803e3d6000fd5b505050506040513d601f19601f820116820180604052508101906114ff9190612036565b60405163e985e9c560e01b81526001600160a01b03808316600483015230602483015291925060009184169063e985e9c59060440160206040518083038186803b15801561154c57600080fd5b505afa158015611560573d6000803e3d6000fd5b505050506040513d601f19601f82011682018060405250810190611584919061214a565b600085815261010060205260409020600301549091506001600160a01b0383811691161480156115bc57506001600160a01b03821633145b6115d85760405162461bcd60e51b8152600401610c979061238b565b806115f55760405162461bcd60e51b8152600401610c97906122d7565b60008481526101006020526040902060078101805460ff19166001179055600601541561165c5760008481526101006020526040808220600601549051339282156108fc02929190818181858888f1935050505015801561165a573d6000803e3d6000fd5b505b60405184907fb44d5981f3bd81a0185dad0967e03df817142f923e4b93a322e68f34ec23cba990600090a25050600160c9555050565b6000600260c95414156116b75760405162461bcd60e51b8152600401610c9790612499565b600260c98190556000838152610100602052604090206003810154600582015491909201546001600160a01b039092169134821461175f576040805162461bcd60e51b81526020600482015260248101919091527f506c65617365207375626d6974207468652061736b696e67207072696365206960448201527f6e206f7264657220746f20636f6d706c657465207468652070757263686173656064820152608401610c97565b6040516001600160a01b038416903480156108fc02916000818181858888f19350505050158015611794573d6000803e3d6000fd5b5060008581526101006020526040908190206001015490516323b872dd60e01b81526001600160a01b03858116600483015233602483015260448201849052909116906323b872dd90606401600060405180830381600087803b1580156117fa57600080fd5b505af115801561180e573d6000803e3d6000fd5b50505060008681526101006020526040902060040180546001600160a01b031916331790555061184260fc80546001019055565b60008581526101006020526040902060060154156118a55760fd54600086815261010060205260408082206006015490516001600160a01b039093169281156108fc0292818181858888f193505050501580156118a3573d6000803e3d6000fd5b505b60405185907f5edde87e7efe9511fd280717315e9a4c5f46a6a84becfc74084b59e48154084490600090a25050600160c95550600292915050565b6000816040516020016118f39190612239565b604051602081830303815290604052805190602001208360405160200161191a9190612239565b6040516020818303038152906040528051906020012014905092915050565b611941611f23565b5060009081526101006020818152604092839020835192830184528054835260018101546001600160a01b03908116928401929092526002810154938301939093526003830154811660608301526004830154166080820152600582015460a0820152600682015460c082015260079091015460ff16151560e082015290565b6033546001600160a01b031633146119eb5760405162461bcd60e51b8152600401610c9790612419565b6001600160a01b038116611a505760405162461bcd60e51b815260206004820152602660248201527f4f776e61626c653a206e6577206f776e657220697320746865207a65726f206160448201526564647265737360d01b6064820152608401610c97565b610d1d81611bfc565b7f360894a13ba1a3210667c828492db98dca3e2076cc3735a920a3ca505d382bbc546001600160a01b031690565b6033546001600160a01b03163314610d1d5760405162461bcd60e51b8152600401610c9790612419565b6000611abb611a59565b9050611ac684611cbc565b600083511180611ad35750815b15611ae457611ae28484611d61565b505b7f4910fdfa16fed3260ed0e7147f7cc6da11a60208b5b9406d12a635614ffd9143805460ff16611bf557805460ff191660011781556040516001600160a01b0383166024820152611b6390869060440160408051601f198184030181529190526020810180516001600160e01b0316631b2ce7f360e11b179052611d61565b50805460ff19168155611b74611a59565b6001600160a01b0316826001600160a01b031614611bec5760405162461bcd60e51b815260206004820152602f60248201527f45524331393637557067726164653a207570677261646520627265616b73206660448201526e75727468657220757067726164657360881b6064820152608401610c97565b611bf585611e4c565b5050505050565b603380546001600160a01b038381166001600160a01b0319831681179093556040519116919082907f8be0079c531659141344cd1fd0a4f28419497f9722a3daafe3b4186f6b6457e090600090a35050565b600054610100900460ff16611c755760405162461bcd60e51b8152600401610c979061244e565b611c7d611e8c565b61125a611eb3565b600054610100900460ff16611cac5760405162461bcd60e51b8152600401610c979061244e565b611cb4611e8c565b61125a611e8c565b803b611d205760405162461bcd60e51b815260206004820152602d60248201527f455243313936373a206e657720696d706c656d656e746174696f6e206973206e60448201526c1bdd08184818dbdb9d1c9858dd609a1b6064820152608401610c97565b7f360894a13ba1a3210667c828492db98dca3e2076cc3735a920a3ca505d382bbc80546001600160a01b0319166001600160a01b0392909216919091179055565b6060823b611dc05760405162461bcd60e51b815260206004820152602660248201527f416464726573733a2064656c65676174652063616c6c20746f206e6f6e2d636f6044820152651b9d1c9858dd60d21b6064820152608401610c97565b600080846001600160a01b031684604051611ddb9190612239565b600060405180830381855af49150503d8060008114611e16576040519150601f19603f3d011682016040523d82523d6000602084013e611e1b565b606091505b5091509150611e43828260405180606001604052806027815260200161259b60279139611ee3565b95945050505050565b611e5581611cbc565b6040516001600160a01b038216907fbc7cd75a20ee27fd9adebab32041f755214dbc6bffa90cc0225b39da2e5c2d3b90600090a250565b600054610100900460ff1661125a5760405162461bcd60e51b8152600401610c979061244e565b600054610100900460ff16611eda5760405162461bcd60e51b8152600401610c979061244e565b61125a33611bfc565b60608315611ef2575081611f1c565b825115611f025782518084602001fd5b8160405162461bcd60e51b8152600401610c9791906122a4565b9392505050565b6040518061010001604052806000815260200160006001600160a01b031681526020016000815260200160006001600160a01b0316815260200160006001600160a01b0316815260200160008152602001600081526020016000151581525090565b600067ffffffffffffffff80841115611fa057611fa061256f565b604051601f8501601f19908116603f01168101908282118183101715611fc857611fc861256f565b81604052809350858152868686011115611fe157600080fd5b858560208301376000602087830101525050509392505050565b600082601f83011261200b578081fd5b611f1c83833560208501611f85565b60006020828403121561202b578081fd5b8135611f1c81612585565b600060208284031215612047578081fd5b8151611f1c81612585565b60008060408385031215612064578081fd5b823561206f81612585565b9150602083013561207f81612585565b809150509250929050565b6000806040838503121561209c578182fd5b82356120a781612585565b9150602083013567ffffffffffffffff8111156120c2578182fd5b8301601f810185136120d2578182fd5b6120e185823560208401611f85565b9150509250929050565b600080604083850312156120fd578182fd5b823561210881612585565b946020939093013593505050565b60008060006060848603121561212a578081fd5b833561213581612585565b95602085013595506040909401359392505050565b60006020828403121561215b578081fd5b81518015158114611f1c578182fd5b6000806040838503121561217c578182fd5b823567ffffffffffffffff80821115612193578384fd5b61219f86838701611ffb565b935060208501359150808211156121b4578283fd5b506120e185828601611ffb565b6000602082840312156121d2578081fd5b5035919050565b80518252602081015160018060a01b03808216602085015260408301516040850152806060840151166060850152806080840151166080850152505060a081015160a083015260c081015160c083015260e0810151151560e08301525050565b6000825161224b81846020870161250e565b9190910192915050565b6020808252825182820181905260009190848201906040850190845b81811015612298576122848385516121d9565b928401926101009290920191600101612271565b50909695505050505050565b60006020825282518060208401526122c381604085016020870161250e565b601f01601f19169190910160400192915050565b60208082526042908201527f596f75206d7573742067697665207065726d697373696f6e20666f722074686960408201527f73206d61726b6574706c61636520746f2061636365737320796f757220746f6b60608201526132b760f11b608082015260a00190565b6020808252602c908201527f46756e6374696f6e206d7573742062652063616c6c6564207468726f7567682060408201526b19195b1959d85d1958d85b1b60a21b606082015260800190565b60208082526022908201527f596f75206d75737420626520746865206f776e6572206f662074686520746f6b60408201526132b760f11b606082015260800190565b6020808252602c908201527f46756e6374696f6e206d7573742062652063616c6c6564207468726f7567682060408201526b6163746976652070726f787960a01b606082015260800190565b6020808252818101527f4f776e61626c653a2063616c6c6572206973206e6f7420746865206f776e6572604082015260600190565b6020808252602b908201527f496e697469616c697a61626c653a20636f6e7472616374206973206e6f74206960408201526a6e697469616c697a696e6760a81b606082015260800190565b6020808252601f908201527f5265656e7472616e637947756172643a207265656e7472616e742063616c6c00604082015260600190565b6101008101610c4882846121d9565b600082198211156124f2576124f2612559565b500190565b60008282101561250957612509612559565b500390565b60005b83811015612529578181015183820152602001612511565b83811115612538576000848401525b50505050565b600060001982141561255257612552612559565b5060010190565b634e487b7160e01b600052601160045260246000fd5b634e487b7160e01b600052604160045260246000fd5b6001600160a01b0381168114610d1d57600080fdfe416464726573733a206c6f772d6c6576656c2064656c65676174652063616c6c206661696c6564a26469706673582212201dc1e0d83d5f5ec472aecdd688c6e32e8143d1f63bf5a287e10ddcb2f0164c2064736f6c63430008020033",
  "linkReferences": {},
  "deployedLinkReferences": {}
}